:020000040800F2
:10000000005000206D290008F9020008FB020008DA
:10001000FD020008FF0200080103000800000000C4
:1000200000000000000000000000000003030008C2
:10003000050300080000000007030008090300088A
:10004000B5290008B5290008B5290008B529000818
:10005000B5290008B5290008B5290008B529000808
:10006000B5290008B5290008B5290008B5290008F8
:10007000B5290008B5290008B5290008B5290008E8
:10008000B5290008B5290008B5290008B5290008D8
:10009000B5290008B5290008B5290008B5290008C8
:1000A000B5290008B5290008B5290008B5290008B8
:1000B000B5290008B5290008B5290008B5290008A8
:1000C000B5290008B5290008B5290008B529000898
:1000D000B5290008B5290008B5290008B529000888
:1000E00011030008B5290008B52900080000000028
:1000F0000000000000000000000000000000000000
:0C01000000000000000000005FF808F1A3
:10010C0010B5054C237833B9044B13B10448AFF345
:10011C0000800123237010BD3C0000200000000073
:10012C00102A000808B5034B1BB103490348AFF371
:10013C00008008BD0000000040000020102A0008CC
:10014C0030B587B0002402940394049405941C4B9E
:10015C009A6942F010029A619A6902F010020092B8
:10016C00009A9A6942F004029A619B6903F00403B5
:10017C000193019B134D22461021284602F0D8F919
:10018C00102302930123039304940223059302A9E1
:10019C00284602F0BDF84FF4C05302930A4B039368
:1001AC00049402A9284602F0B3F8224621462820DE
:1001BC0002F0E6F9282002F017FA07B030BD00BFB4
:1001CC0000100240000801400000111070B582B010
:1001DC000024ADF804408DF806400094144D154BE6
:1001EC002B604FF0FF336B604FF48073AB6028468D
:1001FC0001F0AEFB14268DF804608DF805408DF8E7
:10020C000640224601A9284601F0BBFA05238DF8C9
:10021C00003007238DF8013011238DF802308DF852
:10022C00036022466946284601F00CFB02B070BD03
:10023C00680000200028004008B50C480C4B0360F7
:10024C004FF4827343604FF4004383600023C36018
:10025C00036143614FF400728261C36103624362C4
:10026C0083620A23C36202F045FA08BD7C000020B9
:10027C000030014030B595B0242200210BA802F0CB
:10028C00B9FB0024059406940794089409940194EE
:10029C0002940394049406230A9301250D950E955C
:1002AC0010230F930AA801F025FC0F230593069445
:1002BC00079408940994214605A801F059FE01956C
:1002CC004FF48073029301A801F01EFF15B030BDEE
:1002DC0008B501F0C1FBFFF7CDFFFFF731FFFFF7CA
:1002EC0075FFFFF7A9FF01F0F9F8FCE77047FEE78F
:1002FC00FEE7FEE7FEE770477047704708B501F070
:10030C00BDFB08BD08B54FF4006002F019F94FF4BD
:10031C00805002F015F908BD82B00E4B9A6942F07C
:10032C0001029A619A6902F001020092009ADA695C
:10033C0042F08052DA61DB6903F080530193019B38
:10034C00054A536823F0E06343F00073536002B036
:10035C00704700BF001002400000014002680C4BC7
:10036C009A4200D0704700B583B002F061F9094B96
:10037C00DA6942F00062DA61DB6903F00063019331
:10038C00019B054B01221A6003B05DF804FB00BF12
:10039C0000280040001002403C04424200B587B0E7
:1003AC00002302930393049305930268124B9A4221
:1003BC0002D007B05DF804FB03F560439A6942F480
:1003CC0080529A619A6902F480520092009A9A695A
:1003DC0042F004029A619B6903F004030193019BB0
:1003EC00A0230293022303930323059302A903483A
:1003FC0001F08EFFDDE700BF003001400008014036
:10040C0070B50B2827D8DFE810F00C00270041004E
:10041C005B0075009000AB00C600E000FB0016010D
:10042C0031019F4C40232370082363709D4D0022A3
:10043C001021284602F07CF84FF0FF330D222146A4
:10044C00994802F095F901221021284602F070F823
:10045C00012001F025FB70BD914C00222270282355
:10046C006370904D1021284602F062F84FF0FF3374
:10047C000D2221468C4802F07BF9012210212846DE
:10048C0002F056F8012001F00BFBE4E7844C00224B
:10049C00227048236370834D1021284602F048F8DF
:1004AC004FF0FF330D2221467F4802F061F9012203
:1004BC001021284602F03CF8012001F0F1FACAE7BD
:1004CC00774C0022227088236370764D10212846C9
:1004DC0002F02EF84FF0FF330D222146724802F045
:1004EC0047F901221021284602F022F8012001F0E0
:1004FC00D7FAB0E76A4D01242C7008236B70694E53
:10050C0000221021304602F013F84FF0FF330D2279
:10051C002946654802F02CF922461021304602F09B
:10052C0007F8204601F0BCFA95E75D4C02232370D6
:10053C00082363705B4D00221021284601F0F8FF60
:10054C004FF0FF330D222146574802F011F90122DA
:10055C001021284601F0ECFF012001F0A1FA7AE706
:10056C004F4C04232370082363704E4D002210213E
:10057C00284601F0DDFF4FF0FF330D2221464A489B
:10058C0002F0F6F801221021284601F0D1FF0120DB
:10059C0001F086FA5FE7424C082323706370414DEB
:1005AC0000221021284601F0C3FF4FF0FF330D222B
:1005BC0021463D4802F0DCF801221021284601F0CA
:1005CC00B7FF012001F06CFA45E7354D10242C7073
:1005DC0008236B70334E00222146304601F0A8FFF1
:1005EC004FF0FF330D2229462F4802F0C1F80122AB
:1005FC002146304601F09CFF012001F051FA2AE718
:10060C00274C2023237008236370264D00221021D1
:10061C00284601F08DFF4FF0FF330D222146224872
:10062C0002F0A6F801221021284601F081FF0120DA
:10063C0001F036FA0FE71A4C8023237008236370FD
:10064C00184D00221021284601F072FF4FF0FF33A5
:10065C000D222146144802F08BF801221021284665
:10066C0001F066FF012001F01BFAF4E60C4C0022AD
:10067C002270182363700B4D1021284601F058FF8F
:10068C004FF0FF330D222146074802F071F801228A
:10069C001021284601F04CFF012001F001FADAE6A6
:1006AC0058000020000801407C00002070B50B2889
:1006BC0028D8DFE810F00C002800440060007C0013
:1006CC009800B400D000EB00070123013F01A74CB8
:1006DC00022363700022A2704023E370A44D10210A
:1006EC00284601F025FF4FF0FF330D222146A1488B
:1006FC0002F03EF801221021284601F019FF0120DA
:10070C0001F0CEF970BD994C002262700125A570E4
:10071C004023E370964E1021304601F009FF4FF054
:10072C00FF330D222146934802F022F82A4610216D
:10073C00304601F0FDFE284601F0B2F9E2E78B4CA1
:10074C00002262700223A3704023E370884D1021B5
:10075C00284601F0EDFE4FF0FF330D22214685486F
:10076C0002F006F801221021284601F0E1FE0120DA
:10077C0001F096F9C6E77D4C002262700423A37049
:10078C004023E3707A4D1021284601F0D1FE4FF042
:10079C00FF330D222146774801F0EAFF0122102198
:1007AC00284601F0C5FE012001F07AF9AAE76F4C4A
:1007BC00002262700823A3704023E3706C4D10215B
:1007CC00284601F0B5FE4FF0FF330D222146694853
:1007DC0001F0CEFF01221021284601F0A9FE0120D4
:1007EC0001F05EF98EE7614C002262701025A57055
:1007FC004023E3705E4E2946304601F099FE4FF0DF
:10080C00FF330D2221465B4801F0B2FF012229463D
:10081C00304601F08DFE012001F042F972E7534C95
:10082C00002262702023A3704023E370504D1021EE
:10083C00284601F07DFE4FF0FF330D2221464D4836
:10084C0001F096FF01221021284601F071FE0120D3
:10085C0001F026F956E7454C002262704023A37044
:10086C00E370434D1021284601F062FE4FF0FF3338
:10087C000D2221463F4801F07BFF01221021284622
:10088C0001F056FE012001F00BF93BE7374C00223A
:10089C0062708023A3704023E370354D10212846ED
:1008AC0001F046FE4FF0FF330D222146314801F096
:1008BC005FFF01221021284601F03AFE012001F0D1
:1008CC00EFF81FE7294C012565700022A270402328
:1008DC00E370274E1021304601F02AFE4FF0FF3313
:1008EC000D222146234801F043FF2A4610213046B1
:1008FC0001F01EFE284601F0D3F803E71B4C04233D
:10090C0063700022A2704023E370194D1021284619
:10091C0001F00EFE4FF0FF330D222146154801F079
:10092C0027FF01221021284601F002FE012001F0D0
:10093C00B7F8E7E60D4C00226270A270C023E3709A
:10094C000B4D1021284601F0F3FD4FF0FF330D2223
:10095C002146084801F00CFF01221021284601F025
:10096C00E7FD012001F09CF8CCE600BF5800002008
:10097C00000801407C00002070B50B2827D8DFE868
:10098C0010F00C00270041005B0075008F00A900DF
:10099C00C400DE00F90014012F019E4D1024EC70F0
:1009AC0002232B719C4E00222146304601F0C0FDE3
:1009BC004FF0FF330D222946984801F0D9FE012251
:1009CC002146304601F0B4FD012001F069F870BDFC
:1009DC00904C0022E2700A2323718F4D102128467F
:1009EC0001F0A6FD4FF0FF330D2221468B4801F09C
:1009FC00BFFE01221021284601F09AFD012001F0D2
:100A0C004FF8E4E7834C0022E27012232371824DED
:100A1C001021284601F08CFD4FF0FF330D222146AA
:100A2C007E4801F0A5FE01221021284601F080FD30
:100A3C00012001F035F8CAE7764C0022E27022233F
:100A4C002371754D1021284601F072FD4FF0FF33D4
:100A5C000D222146714801F08BFE012210212846FF
:100A6C0001F066FD012001F01BF8B0E7694C002293
:100A7C00E27042232371684D1021284601F058FD85
:100A8C004FF0FF330D222146644801F071FE012224
:100A9C001021284601F04CFD012001F001F896E7E9
:100AAC005C4C0022E270822323715B4D102128469E
:100ABC0001F03EFD4FF0FF330D222146574801F067
:100ACC0057FE01221021284601F032FD012000F0D2
:100ADC00E7FF7CE74F4D0124EC7002232B714E4E47
:100AEC0000221021304601F023FD4FF0FF330D2280
:100AFC0029464A4801F03CFE22461021304601F0BE
:100B0C0017FD204600F0CCFF61E7424C0223E37056
:100B1C002371414D00221021284601F009FD4FF0B0
:100B2C00FF330D2221463D4801F022FE0122102107
:100B3C00284601F0FDFC012000F0B2FF47E7354CE0
:100B4C000423E37002232371334D00221021284625
:100B5C0001F0EEFC4FF0FF330D2221462F4801F03F
:100B6C0007FE01221021284601F0E2FC012000F0D2
:100B7C0097FF2CE7274C0823E37002232371264DA3
:100B8C0000221021284601F0D3FC4FF0FF330D2238
:100B9C002146224801F0ECFD01221021284601F0EB
:100BAC00C7FC012000F07CFF11E71A4C2023E370F6
:100BBC0002232371184D00221021284601F0B8FCA5
:100BCC004FF0FF330D222146144801F0D1FD0122D4
:100BDC001021284601F0ACFC012000F061FFF6E684
:100BEC000C4C0022E270062323710B4D1021284679
:100BFC0001F09EFC4FF0FF330D222146074801F017
:100C0C00B7FD01221021284601F092FC012000F0D2
:100C1C0047FFDCE658000020000801407C00002063
:100C2C00F8B50B2827D8DFE810F00C00270041009E
:100C3C005B0076009100AC00C700E100FC001701DE
:100C4C003301A14D80236B711024AC719F4E002297
:100C5C002146304601F06CFC4FF0FF330D22294643
:100C6C009B4801F085FD01222146304601F060FCD5
:100C7C00012000F015FFF8BD934C00226271502347
:100C8C00A371924D1021284601F052FC4FF0FF3316
:100C9C000D2221468E4801F06BFD012210212846C1
:100CAC0001F046FC012000F0FBFEE4E7864C00223C
:100CBC0062719023A371854D1021284601F038FCF8
:100CCC004FF0FF330D222146814801F051FD0122E6
:100CDC001021284601F02CFC012000F0E1FECAE7AF
:100CEC00794E012474711025B571784F0022294674
:100CFC00384601F01DFC4FF0FF330D22314674488D
:100D0C0001F036FD22462946384601F011FC2046FA
:100D1C0000F0C6FEAFE76C4D02236B711024AC7172
:100D2C006A4E00222146304601F002FC4FF0FF33A0
:100D3C000D222946664801F01BFD01222146304652
:100D4C0001F0F6FB012000F0ABFE94E75E4D0423AE
:100D5C006B711024AC715D4E00222146304601F0BF
:100D6C00E7FB4FF0FF330D222946594801F000FDF7
:100D7C0001222146304601F0DBFB012000F090FE01
:100D8C0079E7514D08236B711024AC714F4E002242
:100D9C002146304601F0CCFB4FF0FF330D222946A3
:100DAC004B4801F0E5FC01222146304601F0C0FB26
:100DBC00012000F075FE5EE7434D10246C71AC71A0
:100DCC00424E00222146304601F0B2FB4FF0FF3379
:100DDC000D2229463E4801F0CBFC0122214630462B
:100DEC0001F0A6FB012000F05BFE44E7364D20230A
:100DFC006B711024AC71354E00222146304601F047
:100E0C0097FB4FF0FF330D222946314801F0B0FC1F
:100E1C0001222146304601F08BFB012000F040FE00
:100E2C0029E7294D40236B711024AC71274E002209
:100E3C002146304601F07CFB4FF0FF330D22294652
:100E4C00234801F095FC01222146304601F070FB4D
:100E5C00012000F025FE0EE71B4C01252571002218
:100E6C0062711026A671194F3146384601F060FBAD
:100E7C004FF0FF330D222146154801F079FC2A462C
:100E8C003146384601F054FB284600F009FEF2E6E4
:100E9C000D4C0022227162713023A3710B4D102175
:100EAC00284601F045FB4FF0FF330D222146084840
:100EBC0001F05EFC01221021284601F039FB0120D3
:100ECC0000F0EEFDD7E600BF5800002000080140FE
:100EDC007C00002070B50B2828D8DFE810F00C003F
:100EEC002800440060007C009800B400D000EB00A7
:100EFC00070123013F01A74C0423A3710022E271D7
:100F0C0080232372A44D1021284601F011FB4FF0D1
:100F1C00FF330D222146A14801F02AFC01221021A9
:100F2C00284601F005FB012000F0BAFD70BD994C7C
:100F3C000022A2710223E37180232372964D1021AB
:100F4C00284601F0F5FA4FF0FF330D222146934865
:100F5C0001F00EFC01221021284601F0E9FA0120D3
:100F6C0000F09EFDE2E78B4C0022A2710423E3719A
:100F7C0080232372884D1021284601F0D9FA4FF0B6
:100F8C00FF330D222146854801F0F2FB012210218E
:100F9C00284601F0CDFA012000F082FDC6E77D4C19
:100FAC000022A2710823E371802323727A4D102151
:100FBC00284601F0BDFA4FF0FF330D222146774849
:100FCC0001F0D6FB01221021284601F0B1FA0120D4
:100FDC0000F066FDAAE76F4C0022A2711025E571A6
:100FEC00802323726C4E2946304601F0A1FA4FF053
:100FFC00FF330D222146694801F0BAFB0122294634
:10100C00304601F095FA012000F04AFD8EE7614C64
:10101C000022A2712023E371802323725E4D1021E4
:10102C00284601F085FA4FF0FF330D2221465B482C
:10103C0001F09EFB01221021284601F079FA0120D3
:10104C0000F02EFD72E7534C0022A2714023E37195
:10105C0080232372504D1021284601F069FA4FF07D
:10106C00FF330D2221464D4801F082FB0122102155
:10107C00284601F05DFA012000F012FD56E7454CC0
:10108C000022A2718023E3712372434D1021284664
:10109C0001F04EFA4FF0FF330D2221463F4801F08C
:1010AC0067FB01221021284601F042FA012000F0D2
:1010BC00F7FC3BE7374C0125A5710022E271802338
:1010CC002372354E1021304601F032FA4FF0FF33C7
:1010DC000D222146314801F04BFB2A4610213046A7
:1010EC0001F026FA284600F0DBFC1FE7294C02230E
:1010FC00A3710022E27180232372274D1021284610
:10110C0001F016FA4FF0FF330D222146234801F06F
:10111C002FFB01221021284601F00AFA012000F0D1
:10112C00BFFC03E71B4C0823A3710022E271802350
:10113C002372194D1021284601F0FAF94FF0FF33B4
:10114C000D222146154801F013FB012210212846DF
:10115C0001F0EEF9012000F0A3FCE7E60D4C0022B3
:10116C00A2710125E571802323720B4E10213046AC
:10117C0001F0DEF94FF0FF330D222146074801F054
:10118C00F7FA2A461021304601F0D2F9284600F031
:10119C0087FCCBE658000020000801407C000020B2
:1011AC0070B50B2827D8DFE810F00C0027004100A1
:1011BC005B0075008F00AA00C500DE00F900140169
:1011CC002F019E4C20232372042363729C4D00221A
:1011DC001021284601F0ACF94FF0FF330D222146C7
:1011EC00984801F0C5FA01221021284601F0A0F917
:1011FC00012000F055FC70BD904C0022227214238B
:10120C0063728F4D1021284601F092F94FF0FF3395
:10121C000D2221468B4801F0ABFA01221021284601
:10122C0001F086F9012000F03BFCE4E7834C00223E
:10123C00227224236372824D1021284601F078F922
:10124C004FF0FF330D2221467E4801F091FA012226
:10125C001021284601F06CF9012000F021FCCAE7AE
:10126C00764C0022227244236372754D102128465D
:10127C0001F05EF94FF0FF330D222146714801F069
:10128C0077FA01221021284601F052F9012000F0D2
:10129C0007FCB0E7694C0022227288236372684D08
:1012AC001021284601F044F94FF0FF330D2221465E
:1012BC00644801F05DFA01221021284601F038F94A
:1012CC00012000F0EDFB96E75C4D01242C7004230B
:1012DC006B705B4E00221021304601F029F94FF063
:1012EC00FF330D222946574801F042FA22461021BD
:1012FC00304601F01DF9204600F0D2FB7BE74F4C45
:10130C0002232372042363724D4D002210212846C0
:10131C0001F00EF94FF0FF330D222146494801F040
:10132C0027FA01221021284601F002F9012000F0D1
:10133C00B7FB60E7414D04232B72414C0022102176
:10134C00204601F0F5F84FF0FF330D2229463D48B9
:10135C0001F00EFA01221021204601F0E9F80120DB
:10136C0000F09EFB47E7354C08232372042363727D
:10137C00334D00221021284601F0DAF84FF0FF33EC
:10138C000D2221462F4801F0F3F9012210212846A5
:10139C0001F0CEF8012000F083FB2CE7274D102440
:1013AC002C7204236B72264E00222146304601F02B
:1013BC00BFF84FF0FF330D222946224801F0D8F92F
:1013CC0001222146304601F0B3F8012000F068FB01
:1013DC0011E71A4C4023237204236372184D002228
:1013EC001021284601F0A4F84FF0FF330D222146BE
:1013FC00144801F0BDF901221021284601F098F89B
:10140C00012000F04DFBF6E60C4C002222710C235F
:10141C0063710B4D1021284601F08AF84FF0FF3311
:10142C000D222146074801F0A3F90122102128467C
:10143C0001F07EF8012000F033FBDCE658000020C0
:10144C00000801407C000020002304E0034A002136
:10145C00D1540133DBB20C2BF8D970475800002063
:10146C0038B5002501E00135EDB2052D35D8002445
:10147C00092CF8D82046FEF7C3FF012000F010FB22
:10148C00FFF7E2FF2046FFF711F9012000F008FBFF
:10149C00FFF7DAFF2046FFF76FFA012000F000FBA0
:1014AC00FFF7D2FF2046FFF7BBFB012000F0F8FA54
:1014BC00FFF7CAFF2046FFF70DFD012000F0F0FA00
:1014CC00FFF7C2FF2046FFF76BFE012000F0E8FAA1
:1014DC00FFF7BAFF0134E4B2CAE738BD2DE9F84F83
:1014EC004FF0000B03E00BF1010B5FFA8BFBBBF130
:1014FC000B0F69D8354B53F82B204FEA521A344B4B
:10150C00A3FB0A3A4FEADA13CAF3C71A314901FBB3
:10151C001321314BA3FB0101C1F34739A3FB021388
:10152C00590B42F2107303FB11212C4BA3FB01014D
:10153C00C1F38718A3FB021399094FF47A7303FBC9
:10154C001121274BA3FB0101C1F34717A3FB021386
:10155C005909642303FB1121224DA5FB0131C1F371
:10156C00C706A5FB0235ED0805EB85056B00D51A02
:10157C00EDB2FFF775FF0024632CB4D80B20FFF7F6
:10158C000FFEFFF761FF5046FFF70AFEFFF75CFF07
:10159C004846FFF79FFCFFF757FF4046FFF740FB1D
:1015AC00FFF752FF3846FFF7E7F9FFF74DFF3046DC
:1015BC00FFF77CF8FFF748FF2846FEF721FFFFF7FF
:1015CC0043FF0134E4B2D7E7BDE8F88F00000020F8
:1015DC00C55A7C0AA08601005917B7D1D34D6210A9
:1015EC001F85EB51CDCCCCCC30B402689469A5B23C
:1015FC00D369916988B2854205D0D06980B240EA3E
:10160C00014030BC704798B240EA0440F9E70368E7
:10161C00186A5B6A9BB243EA00407047030903EB0C
:10162C00830300F00F0000EB4300C0B270470000D2
:10163C0010B400F5FA64022922D801EB4103C1EB86
:10164C00C3011F4BA3FB011302EB5303234400F212
:10165C00CF7003EB90031B4AA2FB0020A3EB5013AB
:10166C0003EBD01304331848A0FB03201A1A00EB29
:10167C0052008008C0EBC000181AC0B210BC7047F2
:10168C0001EB4103C1EBC3010D4BA3FB011302EBB7
:10169C005303234403EB94030A4AA2FB0424A3EB55
:1016AC00541303EBD41302330748A0FB03201A1A7C
:1016BC0000EB52008008C0EBC000181ADDE700BF39
:1016CC00398EE3381F85EB512549922438B50446F1
:1016DC0000F0E0F9054623685A6812F0200F07D194
:1016EC0000F0D8F9401BB0F57A7FF4D9032004E060
:1016FC005A6842F010025A60002038BD38B50446D2
:10170C000268536823F01003536000F0C3F90546D8
:10171C0023685B6813F0200F07D100F0BBF9401B66
:10172C00B0F57A7FF4D9032000E0002038BD38B53D
:10173C0005460C46FFF7CAFF08B1012038BD2B68DF
:10174C00220C9A612B68A4B2DC612846FFF7D6FF05
:10175C000028F3D00120F1E738B505460C46FFF719
:10176C00B5FF08B1012038BD2B68220C1A622B681A
:10177C00A4B25C622846FFF7C1FF0028F3D0012019
:10178C00F1E770B5002857D00C460546002955D016
:10179C00037C012B54D00123037402234374BAB984
:1017AC0008784B78C3EB03139B004FF4616202FB88
:1017BC0000338C781C4421462846FFF7B8FF0646B8
:1017CC00C8B104236B7400232B740126304670BD02
:1017DC000878FFF723FF4FF4616606FB00F660788C
:1017EC00FFF71CFFC0EB001006EB8006A078FFF79C
:1017FC0015FF3418DFE72A68536823F0050353609C
:10180C002846FFF704FFB0F1FF3F01D0844204D813
:10181C0001236B7400232B74D8E700F5A83101F574
:10182C00C0712846FFF798FF0028F1D004236B7491
:10183C0000232B740126C9E70126C7E70126C5E75B
:10184C000226C3E700285AD038B50D4604460029B5
:10185C0057D0037C012B56D001230374022343740D
:10186C00BAB9CB78C3734B7843738B788373A27BF1
:10187C00617BE07BFFF7DCFE207328702046FFF7CE
:10188C00B3FE224B984211D80123637400202074BC
:10189C0038BDC878FFF7C2FEE0736878FFF7BEFE6C
:1018AC006073A878FFF7BAFEA073E0E7184DA5FBAC
:1018BC0000352D0C174B03FB150529462046FFF769
:1018CC0036FF28B104236374002323740120DFE75F
:1018DC002046FFF79CFEB0F1FF3FD5D08542D3D90F
:1018EC0000F5A83101F5C0712046FFF735FF00283F
:1018FC00CAD004236374002323740120C8E7012099
:10190C0070470120C4E70220C2E700BF8F5F0100CF
:10191C0007452EC280510100C0B138B5054602689A
:10192C00536823F00803536000F0B4F804462B68A6
:10193C005B6813F0080F07D100F0ACF8001BB0F592
:10194C007A7FF4D9032000E0002038BD01207047D5
:10195C00002857D010B50446437C4BB10223637466
:10196C002046FFF7D9FF38B104236374012010BD62
:10197C000374FEF7F3FCF1E72046FFF7A7FE60BB0C
:10198C002268536823F007035360A36823B11E4AEF
:10199C00136B23F0010313631B4AD36A23F46073A4
:1019AC00A1680B43D3626268B2F1FF3F19D0216882
:1019BC008B6823F00F0343EA12438B602168CB68DA
:1019CC001B0C1B0492B21343CB602046FFF796FE10
:1019DC0088B1042363740120C9E7042363740120D4
:1019EC00C5E7012000F01AFC08B1421EDFE7042312
:1019FC0063740120BBE70023E37301236373A373B8
:101A0C006374B4E701207047006C004010B50446C5
:101A1C000E4B18784FF47A73B3FBF0F30C4A106842
:101A2C00B0FBF3F000F0EEFD68B90F2C01D90120EA
:101A3C000AE0002221464FF0FF3000F0A1FD054BDB
:101A4C001C60002000E0012010BD00BF3000002011
:101A5C00380000203400002008B5074A136843F012
:101A6C0010031360032000F079FD0020FFF7CEFF78
:101A7C00FEF752FC002008BD00200240034A11680A
:101A8C00034B1B780B441360704700BFD40000203D
:101A9C0030000020014B1868704700BFD4000020B4
:101AAC0038B50446FFF7F6FF0546B4F1FF3F02D008
:101ABC00044B1B781C44FFF7EDFF401BA042FAD3EC
:101ACC0038BD00BF3000002082B0084B1B68084AAC
:101ADC00A2FB03235B0A00FB03F3019300BF019BF2
:101AEC005A1E0192002BF9D102B070473800002029
:101AFC00D34D6210002800F0F18170B582B004461D
:101B0C00036813F0010F2CD0AA4B5B6803F00C0395
:101B1C00042B1DD0A74B5B6803F00C03082B12D0D1
:101B2C006368B3F5803F41D0002B55D103F180435E
:101B3C0003F504331A6822F480321A601A6822F40E
:101B4C0080221A6037E09B4B5B6813F4803FE7D030
:101B5C00984B1B6813F4003F03D06368002B00F014
:101B6C00BF81236813F0020F75D0924B5B6813F0A2
:101B7C000C0F5FD08F4B5B6803F00C03082B54D019
:101B8C002369002B00F089808B4B01221A60FFF730
:101B9C0081FF0546874B1B6813F0020F74D1FFF7CA
:101BAC0079FF401B0228F5D903209EE1814A136876
:101BBC0043F480331360636843B3FFF76BFF054650
:101BCC007C4B1B6813F4003FCBD1FFF763FF401B2A
:101BDC006428F5D9032088E1B3F5A02F09D0754B03
:101BEC001A6822F480321A601A6822F480221A6071
:101BFC00E1E703F18043A3F53C331A6842F48022F9
:101C0C001A601A6842F480321A60D4E7FFF742FF78
:101C1C000546684B1B6813F4003FA2D0FFF73AFF50
:101C2C00401B6428F5D903205FE1624B5B6813F419
:101C3C00803FA5D15F4B1B6813F0020F03D02369C3
:101C4C00012B40F04F815B4A136823F0F803616964
:101C5C0043EAC1031360236813F0080F32D0A36961
:101C6C00002B45D0554B01221A60FFF713FF054698
:101C7C00504B5B6A13F0020F21D1FFF70BFF401B97
:101C8C000228F5D9032030E14A4A136823F0F803FF
:101C9C00616943EAC1031360DDE7474B00221A6018
:101CAC00FFF7F8FE0546434B1B6813F0020FD2D02A
:101CBC00FFF7F0FE401B0228F5D9032015E10120A7
:101CCC00FFF702FF236813F0040F00F09780394BE5
:101CDC00DB6913F0805F1DD1364BDA6942F080521C
:101CEC00DA61DB6903F080530193019B012512E05B
:101CFC00324B00221A60FFF7CDFE05462D4B5B6A76
:101D0C0013F0020FDED0FFF7C5FE401B0228F5D9F9
:101D1C000320EAE000252A4B1B6813F4807F11D0C6
:101D2C00E368012B22D0002B38D103F1804303F55B
:101D3C0004331A6A22F001021A621A6A22F00402AF
:101D4C001A6218E01E4A136843F480731360FFF79D
:101D5C00A1FE06461A4B1B6813F4807FE0D1FFF7F7
:101D6C0099FE801B6428F5D90320BEE0114A136A42
:101D7C0043F001031362E36873B3FFF78BFE06466F
:101D8C000C4B1B6A13F0020F37D1FFF783FE801B3D
:101D9C0041F288339842F3D90320A6E0052B11D0E9
:101DAC00044B1A6A22F001021A621A6A22F0040227
:101DBC001A62E0E7001002400000424280044242F6
:101DCC00007000404D4B1A6A42F004021A621A6A03
:101DDC0042F001021A62CEE7FFF75CFE0646474B63
:101DEC001B6A13F0020F08D0FFF754FE801B41F260
:101DFC0088339842F3D9032077E0E5B9E369002BE7
:101E0C0072D03E4A526802F00C02082A56D0022BBD
:101E1C0017D03B4B00221A60FFF73CFE0446374BB1
:101E2C001B6813F0007F47D0FFF734FE001B02281D
:101E3C00F5D9032059E0314AD36923F08053D3619B
:101E4C00DCE72F4B00221A60FFF724FE05462B4BD4
:101E5C001B6813F0007F06D0FFF71CFE401B022806
:101E6C00F5D9032041E0236AB3F5803F1AD023490A
:101E7C004B6823F47413226A606A024313434B6069
:101E8C001F4B01221A60FFF705FE04461B4B1B6813
:101E9C0013F0007F0ED1FFF7FDFD001B0228F5D9D2
:101EAC00032022E0154A536823F40033A1680B4346
:101EBC005360DCE7002018E0002016E0012B16D060
:101ECC000E4B5B6803F48031226A914211D103F40A
:101EDC007013626A93420ED1002006E00120704715
:101EEC00012002E0012000E0002002B070BD0120C2
:101EFC00FBE70120F9E70120F7E700BF00100240E3
:101F0C006000424286B0164B0FCB0DF1180C0CE959
:101F1C000F0040F20123ADF80430124B5B6803F064
:101F2C000C02082A02D0104806B07047C3F3834253
:101F3C00624412F8102C13F4803F0CD0094B5B68F0
:101F4C00C3F34043634413F8143C074800FB02F00E
:101F5C00B0FBF3F0E8E7054800FB02F0E4E700BF54
:101F6C00282A00080010024000127A0000093D00E7
:101F7C00002800F0A08070B50D460446524B1B683B
:101F8C0003F007038B420BD24F4A136823F007036D
:101F9C000B431360136803F007038B4240F08D80F2
:101FAC00236813F0020F17D013F0040F04D0474A24
:101FBC00536843F4E0635360236813F0080F04D0B4
:101FCC00424A536843F460535360404A536823F0C9
:101FDC00F003A1680B435360236813F0010F31D059
:101FEC006368012B20D0022B25D0384A126812F0DE
:101FFC00020F64D035494A6822F0030213434B6048
:10200C00FFF748FD0646314B5B6803F00C03626832
:10201C00B3EB820F16D0FFF73DFD801B41F28833E6
:10202C009842F0D9032045E0284A126812F4003F88
:10203C00E0D101203EE0254A126812F0007FD9D190
:10204C00012037E0204B1B6803F00703AB420AD991
:10205C001D4A136823F007032B431360136803F026
:10206C000703AB422DD1236813F0040F06D0174A97
:10207C00536823F4E063E1680B435360236813F067
:10208C00080F07D0114A536823F46053216943EABF
:10209C00C1035360FFF736FF0C4B5B68C3F30313AC
:1020AC000B4AD35CD8400B4B18600B4B1868FFF7EE
:1020BC00ADFC002070BD012070470120FAE7012023
:1020CC00F8E70120F6E700BF0020024000100240B4
:1020DC003C2A00083800002034000020014B18680E
:1020EC00704700BF3800002008B5FFF7F7FF044B1E
:1020FC005B68C3F3C223034AD35CD84008BD00BF5E
:10210C00001002404C2A000870B582B004460368E7
:10211C0013F0010F34D03E4BDB6913F0805F47D1D5
:10212C003B4BDA6942F08052DA61DB6903F0805391
:10213C000193019B0125374B1B6813F4807F39D029
:10214C00334B1B6A13F4407311D0626802F4407273
:10215C009A420CD02E4A136A23F440702E49012661
:10216C000E6000260E60106213F0010F36D1284A63
:10217C00136A23F4407361680B431362002D3ED144
:10218C00236813F0020F06D0214A536823F440430E
:10219C00A1680B435360236813F0100F34D01C4A12
:1021AC00536823F48003E1680B43536000202CE058
:1021BC000025C0E7174A136843F480731360FFF7D8
:1021CC0069FC0646134B1B6813F4807FB8D1FFF7EC
:1021DC0061FC801B6428F5D9032016E0FFF75AFC3C
:1021EC0006460B4B1B6A13F0020FC0D1FFF752FCD3
:1021FC00801B41F288339842F3D9032005E0D36960
:10220C0023F08053D361BBE7002002B070BD00BF48
:10221C0000100240007000404004424210B586B0ED
:10222C000446364B0FCB0DF1180C0CE90F0040F2A5
:10223C000123ADF80430022C52D0102C04D0012C08
:10224C002CD0002006B010BD2D4B5A68186810F029
:10225C008070F7D0C2F3834306A90B4413F8100C1B
:10226C0012F4803F16D0264B5B68C3F340430B44FB
:10227C0013F8142C234BB3FBF2F300FB03F0204BAD
:10228C005B6813F4800FDDD140001F4BA3FB0030C3
:10229C004008D7E71D4B03FB00F0F0E7184B1B6A17
:1022AC0040F202321A40B2F5817F24D003F440731D
:1022BC00B3F5007F04D0B3F5407F09D00020C1E70F
:1022CC000F4A526A12F0020FF5D049F64040B9E7B6
:1022DC000B4B186810F40030B4D04FF22440B1E727
:1022EC00FFF702FF064B5B68C3F3813301335B00DE
:1022FC00B0FBF3F0A6E74FF40040A3E7282A000850
:10230C000010024000127A00ABAAAAAA00093D00F4
:10231C00F0B482B000252C46A3E07F4FBB4210D016
:10232C0007D97E4FBB420CD007F58037BB4208D093
:10233C0013E0A7F58017BB4203D007F57027BB420B
:10234C0007D18B68002B58D0012B51D04261082546
:10235C0003E0A7F58017BB42F3D0FF2E4FD884467D
:10236C00FF2E4FD8A200DCF800300F27974023EA4D
:10237C00070305FA02F21343CCF800304B6813F054
:10238C00805F6DD0664B9A6942F001029A619B693D
:10239C0003F001030193019BA208971C614B53F8B6
:1023AC00273004F00307BF004FF00F0C0CFA07FCAA
:1023BC0023EA0C0C5C4B98422AD003F580639842BC
:1023CC0000F08A8003F58063984200F0878003F563
:1023DC00806398421AD004231BE0CD68BDE7CD681A
:1023EC000435BAE7CD680835B7E7CD680C35B4E7E6
:1023FC0002610825B1E70025AFE70425ADE700F140
:10240C00040CADE7A4F108029200ACE7032300E052
:10241C000023BB4043EA0C030232424F47F8223000
:10242C004B6813F4803F5BD0404A1368334313600E
:10243C004B6813F4003F59D03C4A53683343536004
:10244C004B6813F4801F57D0384A9368334393601A
:10245C004B6813F4001F55D0344AD3681E43D66022
:10246C0001340B6833FA04F252D00122A24003EA81
:10247C00020632EA0303F3D14B68122B3FF64DAF41
:10248C00122B3FF66AAF01A757F823F04F23000831
:10249C00E7230008F1230008032400086723000841
:1024AC0067230008672300086723000867230008D8
:1024BC0067230008672300086723000867230008C8
:1024CC0067230008672300086723000867230008B8
:1024DC00EB230008F723000801239AE7022398E76F
:1024EC00124A136823EA06031360A1E70F4A5368E4
:1024FC0023EA06035360A3E70C4A936823EA060316
:10250C009360A5E7094AD36823EA0606D660A7E7D5
:10251C0002B0F0BC704700BF000022100000311068
:10252C00001002400000014000080140000401407E
:10253C000AB10161704709040161704770470000DE
:10254C0008B5054B5B69034200D108BD024B5861CD
:10255C00FFF7F4FFF9E700BF00040140074AD36816
:10256C0023F4E0631B041B0C000200F4E060034343
:10257C0043F0BF6343F40033D360704700ED00E0D9
:10258C0030B4174BDB68C3F30223C3F10704042CEC
:10259C0028BF04241D1D062D18D9033B4FF0FF3511
:1025AC0005FA04F421EA0401994005FA03F322EA3E
:1025BC000303194300280BDB0901C9B200F1604089
:1025CC0000F5614080F8001330BC70470023E5E74C
:1025DC0000F00F000901C9B2024B1954F4E700BF17
:1025EC0000ED00E014ED00E0002807DB00F01F0216
:1025FC00400901239340024A42F82030704700BF43
:10260C0000E100E00138B0F1807F0AD2064B58603F
:10261C00064AF02182F823100020986007221A60E5
:10262C0070470120704700BF10E000E000ED00E0B3
:10263C00014B01221A60704720000E422DE9F04137
:10264C000646884617461D463468A46838EA0403D3
:10265C000CBF01240024BC4237D0B5F1FF3FF3D0AE
:10266C00FFF718FA069BC01AA84201D2002DEBD135
:10267C003268536823F0E00353607368B3F5827FCC
:10268C000BD0B36AB3F5005F14D0012386F8513038
:10269C00002386F85030032018E0B368B3F5004FE0
:1026AC0002D0B3F5806FECD13268136823F040038D
:1026BC001360E6E73268136823F400531360326842
:1026CC00136843F400531360DFE70020BDE8F0818A
:1026DC0010B582B004460B46009200228021FFF711
:1026EC00ADFF08B902B010BD636D43F02003636504
:1026FC000320F7E7002839D010B504460023836285
:10270C0090F85130002B2CD0022384F851302268E1
:10271C00136823F0400313606368A2681343E268F4
:10272C0013432269134362691343A26902F40072D2
:10273C001343E2691343226A1343A16A22680B43D1
:10274C001360638B226803F0040353602268D3691F
:10275C0023F40063D36100206065012384F85130B9
:10276C0010BD80F85030FDF719FECDE70120704701
:10277C002DE9F04383B01D4690F85030012B00F04A
:10278C00C780044688469146012380F85030FFF7F5
:10279C0081F9074694F85160F6B2012E40F0A580FD
:1027AC00B8F1000F00F0A280B9F1000F00F09E808C
:1027BC00032384F8513000236365C4F83080A4F8F7
:1027CC003490A4F83690A363A387E38763642364EF
:1027DC00A368B3F5004F1ED023681A6812F0400F9F
:1027EC0003D11A6842F040021A60E368B3F5006F37
:1027FC0017D0636813B1B9F1010F4DD1226B236867
:10280C0012781A73236B01332363E38E9BB2013B63
:10281C009BB2E38640E02268136843F48043136064
:10282C00DAE7636813B1B9F1010F16D1226B236893
:10283C001288DA60236B02332363E38E9BB2013B75
:10284C009BB2E38609E0FFF725F9C01BA84202D32F
:10285C00B5F1FF3F54D1002D54D0E38E9BB2002B29
:10286C002ED023689A6812F0020FECD0226B1288DB
:10287C00DA60236B02332363E38E9BB2013B9BB282
:10288C00E386EAE7FFF706F9C01BA84202D3B5F1CD
:10289C00FF3F39D1002D39D0E38E9BB283B1236831
:1028AC009A6812F0020FEDD0226B12781A73236B18
:1028BC0001332363E28E92B2013A92B2E286EBE7E5
:1028CC003A4629462046FFF703FF08B120236365EB
:1028DC00A36833B901932368DA6801929B6801936A
:1028EC00019B636D13B9002600E00226012384F8D6
:1028FC005130002384F85030304603B0BDE8F083EB
:10290C000326F3E70326F1E70326EFE70326EDE7BB
:10291C000226F1E70F4B1A6842F001021A6059685F
:10292C000D4A0A405A601A6822F0847222F48032EE
:10293C001A601A6822F480221A605A6822F4FE0285
:10294C005A604FF41F029A60044B4FF000629A6079
:10295C00704700BF001002400000FFF800ED00E0DF
:10296C00002103E00B4B5B58435004310A480B4BDE
:10297C0042189A42F6D30A4A02E0002342F8043B7A
:10298C00084B9A42F9D3FFF7C5FF00F00FF8FDF79B
:10299C009FFC70475C2A0008000000203C000020CF
:1029AC003C000020D8000020FEE7000070B5002697
:1029BC000C4D0D4C641BA410A64209D100F022F85A
:1029CC0000260A4D0A4C641BA410A64205D170BD0A
:1029DC0055F8043B98470136EEE755F8043B984709
:1029EC000136F2E7542A0008542A0008542A000839
:1029FC00582A000803460244934200D1704703F85A
:102A0C00011BF9E7F8B500BFF8BC08BC9E4670473F
:0C2A1C00F8B500BFF8BC08BC9E4670472F
:102A280002030405060708090A0B0C0D0E0F101007
:102A38000000000000000000000000000102030484
:0C2A48000607080900000000010203045A
:042A54003101000844
:042A58000D01000864
:102A5C00CAB60800A6B6080090B6080087B60800EB
:102A6C002BFC070023FC0700D2F80600C7F8060071
:102A7C00573F06004C3F0600F51A050023250500BC
:0C2A8C0001000000100000000024F40015
:040000050800296D59
:00000001FF
